:100000000C9456000C9468000C9468000C946800E2
:100010000C9468000C9468000C9468000C946800C0
:100020000C9468000C9468000C9468000C946800B0
:100030000C9468000C9468000C9468000C946800A0
:100040000C9468000C9468000C9468000C94680090
:100050000C9468000C9468000C9468000C946A007E
:100060000C9468000C9468000C9468000C94680070
:100070000C9468000C947F000C9468000C94680049
:100080000C9468000C9468000C9468000C94680050
:100090000C9468000C9468000C9468000C94680040
:1000A0000C9468000C9468000C94680011241FBE26
:1000B000CFEFDAE0DEBFCDBF11E0A0E0B1E001C0DC
:1000C0001D92A430B107E1F70E94F5000C94C8011D
:1000D0000C9400001F920F920FB60F9211248F9371
:1000E000DF93CF93CDB7DEB78FEF80930101CF9130
:1000F000DF918F910F900FBE0F901F9018951F9258
:100100000F920FB60F9211248F93DF93CF93CDB739
:10011000DEB78FEF80930001CF91DF918F910F9029
:100120000FBE0F901F901895DF93CF930F92CDB70E
:10013000DEB78983ECE7F0E01082ACE7B0E0ECE7F3
:10014000F0E080818F738C93ACE7B0E0ECE7F0E0F7
:1001500080818F7D8C93ABE7B0E0EBE7F0E08081AE
:100160008F7D8C93ACE7B0E0ECE7F0E08081817E9E
:100170008C93ACE7B0E0ECE7F0E090818981892BCB
:100180008C93AAE7B0E0EAE7F0E080818F698C9376
:10019000AAE7B0E0EAE7F0E0808180648C930F90FA
:1001A000CF91DF910895DF93CF9300D0CDB7DEB725
:1001B0001A821982E8E7F0E080818A83E9E7F0E0BB
:1001C000808189838981882F90E0382F22278A8136
:1001D000882F90E0822B932B909303018093020150
:1001E0000F900F90CF91DF910895DF93CF9300D0C0
:1001F0000F92CDB7DEB7E1E6F0E080E88083E1E67C
:10020000F0E01082A5E5B0E0E5E5F0E080818068EF
:100210008C93A5E5B0E0E5E5F0E0808180688C9303
:10022000E4E4F0E01082E5E4F0E084E08083EEE6D0
:10023000F0E081E08083E4E2F0E08FEF8083E5E2AC
:10024000F0E01082EAE2F0E08FEF8083EBE2F0E092
:100250001082E7E2F0E080E88083E8E2F0E080E806
:100260008083E3ECF0E081E08083E1EDF0E087E182
:100270008083E0ECF0E082EC8083E1ECF0E085E06C
:100280008083EFECF0E08CE0808378941B82809197
:1002900001018F3F29F4109201018B818F5F8B83C5
:1002A0008B81803F20F080E00E9494001B8280912F
:1002B00000018F3F21F4109200010E94D300E5E27B
:1002C000F0E01082809102019091030122E08A34D3
:1002D0009207F8F0E5E2F0E084E08083809102018B
:1002E0009091030189548A838A81853030F0EFEC44
:1002F000F0E08A818F5E808304C0EFECF0E086E15D
:1003000080838A818C3018F2EFECF0E087E1808303
:10031000BECF809102019091030122E08F339207BA
:1003200088F0809102019091030122E08A349207C3
:1003300048F4E5E2F0E082E08083EFECF0E081E178
:100340008083A5CF809102019091030122E08F3339
:10035000920708F09CCFE5E2F0E081E08083809195
:10036000020190910301982F8FE3891B8983898172
:10037000853048F0EFECF0E091E18981292F281BCE
:10038000822F808384CFEFECF0E08CE080837FCFFE
:04039000F894FFCF0F
:00000001FF
